:100000000C942A000C943F000C943F000C943F0089
:100010000C943F000C943F000C943F000C943F0064
:100020000C943F000C943F000C943F000C943F0054
:100030000C943F000C943F000C943F000C943F0044
:100040000C943F000C943F000C943F000C943F0034
:100050000C943F0011241FBECFE5D4E0DEBFCDBF1E
:1000600010E0A0E6B0E0E2E6F4E302C005900D92F5
:10007000AC37B107D9F70E94BA190C942F1A0C9417
:100080000000EF92FF920F931F937B018C0120E001
:1000900030E040E05FE40E94410388238CF0C80117
:1000A000B70120E030E040E05FE40E94B9010E9427
:1000B000A1039B01AC01205030404040504806C095
:1000C000C801B7010E94A1039B01AC01B901CA019B
:1000D0001F910F91FF90EF900895A0E0B0E0E3E74B
:1000E000F0E00C94F819DC012B01FA019C9192309C
:1000F00008F439C1EB018881823008F433C19430AF
:1001000069F4843009F02FC111969C91119789816F
:10011000981709F428C1A4E7B0E025C1843009F498
:1001200021C18230A9F4923009F01DC19A01AD01BC
:1001300088E0EA010990AE01E90109929E0181502F
:10014000C1F7E201898111969C918923818308C1BD
:10015000923009F407C112962D903C901397EB0151
:100160008A819B811496AD90BD90CD90DC901797BD
:10017000EC80FD800E811F819101281B390BB90194
:1001800037FF04C066277727621B730B6032710547
:100190000CF061C0121613066CF537014801062EEB
:1001A00004C096948794779467940A94D2F721E0D8
:1001B00030E040E050E004C0220F331F441F551FC1
:1001C0006A95D2F721503040404050402E213F21C7
:1001D00040235123211531054105510521F021E02E
:1001E00030E040E050E079018A01E628F72808294C
:1001F00019293CC0232BD1F1260E371E35014601AB
:10020000062E04C096948794779467940A94D2F744
:1002100021E030E040E050E004C0220F331F441FD3
:10022000551F6A95D2F721503040404050402A2156
:100230003B214C215D21211531054105510521F05E
:1002400021E030E040E050E059016A01A628B728DB
:10025000C828D9280BC0821593052CF01C01AA24AC
:10026000BB24650103C0EE24FF24870111969C91F5
:10027000D20111968C91981709F445C0992339F051
:10028000A80197012A193B094C095D0906C0A6017E
:1002900095012E193F09400B510B57FD08C01182E3
:1002A0003382228224833583468357831DC081E0B5
:1002B00081833382228288279927DC01821B930B5A
:1002C000A40BB50B84839583A683B7830DC0220F3F
:1002D000331F441F551F24833583468357838281F0
:1002E000938101979383828324813581468157814D
:1002F000DA01C9010197A109B1098F5F9F4FAF4F83
:10030000BF4328F30BC0918333822282EA0CFB1C8B
:100310000C1D1D1DE482F5820683178383E0808314
:10032000248135814681578157FF1AC0C901AA2708
:1003300097FDA095BA2F81709070A070B0705695FF
:10034000479537952795822B932BA42BB52B848328
:100350009583A683B7838281938101969383828359
:10036000DF0101C0D201CD01CDB7DEB7E2E10C94CF
:10037000141AA0E2B0E0EFEBF1E00C94041A6983E8
:100380007A838B839C832D833E834F835887E9E058
:10039000EE2EF12CEC0EFD1ECE010196B7010E944F
:1003A000CA048E010F5E1F4FCE010596B8010E9450
:1003B000CA048A8991E089278A8BC701B801AE01F6
:1003C000475E5F4F0E946D000E94F503A096E6E035
:1003D0000C94201AA0E2B0E0E0EFF1E00C94041AD3
:1003E00069837A838B839C832D833E834F835887D5
:1003F000F9E0EF2EF12CEC0EFD1ECE010196B701B7
:100400000E94CA048E010F5E1F4FCE010596B801EF
:100410000E94CA04C701B801AE01475E5F4F0E9447
:100420006D000E94F503A096E6E00C94201AA0E26D
:10043000B0E0EDE1F2E00C94F81969837A838B83E4
:100440009C832D833E834F835887CE010196BE0146
:10045000675F7F4F0E94CA04CE010596BE016F5EA2
:100460007F4F0E94CA049985923088F08989823032
:10047000C8F0943019F4823051F404C0843029F467
:10048000923081F484E790E0C6C0923049F420E0D5
:100490009A858A89981321E02A87CE010996BBC0E4
:1004A000823049F420E09A858A89981321E02A8BCA
:1004B000CE014196B0C02D843E844F8458886D880B
:1004C0007E888F88988CEE24FF248701AA24BB2481
:1004D000650140E050E060E070E0E0E0F0E0C10184
:1004E00081709070892BE9F0E60CF71C081D191D2E
:1004F0009A01AB012A0D3B1D4C1D5D1D80E090E073
:10050000A0E0B0E0E614F7040805190520F481E046
:1005100090E0A0E0B0E0BA01A901480F591F6A1F9E
:100520007B1FAA0CBB1CCC1CDD1C97FE08C081E005
:1005300090E0A0E0B0E0A82AB92ACA2ADB2A3196C6
:10054000E032F10549F0660C771C881C991C569422
:10055000479437942794C3CFFA85EA892B893C893D
:100560008B859C85280F391F2E5F3F4F17C0CA010E
:1005700081709070892B61F016950795F794E79438
:1005800080E090E0A0E0B0E8E82AF92A0A2B1B2BD3
:1005900076956795579547952F5F3F4F77FDE7CF46
:1005A0000CC0440F551F661F771F17FD4160EE0CEE
:1005B000FF1C001F111F21503040403090E05907B0
:1005C00090E0690790E4790760F32B8F3C8FDB01A3
:1005D000CA018F779070A070B07080349105A1052A
:1005E000B10561F447FD0AC0E114F10401051105EC
:1005F00029F0405C5F4F6F4F7F4F40781A8EFE1797
:1006000011F081E08A8F4D8F5E8F6F8F78A383E02A
:10061000898FCE0149960E94F503A096E2E10C94E1
:10062000141AA8E1B0E0E7E1F3E00C94041A69833E
:100630007A838B839C832D833E834F83588789E005
:10064000E82EF12CEC0EFD1ECE010196B7010E94A2
:10065000CA048E010F5E1F4FCE010596B8010E949D
:10066000CA048985823040F08989823028F0C70128
:10067000B8010E94420501C08FEF6896E6E00C9435
:10068000201AA8E1B0E0E7E4F3E00C94041A6983CF
:100690007A838B839C832D833E834F83588789E0A5
:1006A000E82EF12CEC0EFD1ECE010196B7010E9442
:1006B000CA048E010F5E1F4FCE010596B8010E943D
:1006C000CA048985823040F08989823028F0C701C8
:1006D000B8010E94420501C08FEF6896E6E00C94D5
:1006E000201AA8E1B0E0E7E7F3E00C94041A69836C
:1006F0007A838B839C832D833E834F83588789E045
:10070000E82EF12CEC0EFD1ECE010196B7010E94E1
:10071000CA048E010F5E1F4FCE010596B8010E94DC
:10072000CA048985823040F08989823028F0C70167
:10073000B8010E94420501C081E06896E6E00C9491
:10074000201AACE0B0E0E7EAF3E00C94081A698301
:100750007A838B839C83CE010196BE016B5F7F4FB2
:100760000E94CA048D81823061F1823050F1843060
:1007700021F48E81882351F12EC02F81388537FDD9
:1007800020C06E812F3131051CF06623F9F023C0A3
:100790008EE190E0821B930B29853A854B855C8521
:1007A00004C056954795379527958A95D2F76623C5
:1007B000B1F050954095309521953F4F4F4F5F4F89
:1007C0000EC020E030E040E050E009C02FEF3FEFE6
:1007D0004FEF5FE704C020E030E040E050E8B901AF
:1007E000CA012C96E2E00C94241ADF92EF92FF9259
:1007F0000F931F93FC01E480F58006811781D1805F
:100800008081823048F480E090E0A0E1B0E0E82A06
:10081000F92A0A2B1B2BA5C0843009F49FC0823013
:1008200021F4EE24FF24870105C0E114F104010541
:10083000110519F4E0E0F0E096C0628173819FEF4A
:10084000623879070CF05BC022E83FEF261B370BBC
:100850002A3131052CF020E030E040E050E02AC0A1
:10086000B801A701022E04C0769567955795479564
:100870000A94D2F781E090E0A0E0B0E004C0880FD5
:10088000991FAA1FBB1F2A95D2F70197A109B10989
:100890008E219F21A023B1230097A105B10521F04E
:1008A00081E090E0A0E0B0E09A01AB01282B392B69
:1008B0004A2B5B2BDA01C9018F779070A070B07062
:1008C00080349105A105B10539F427FF09C0205CEA
:1008D0003F4F4F4F5F4F04C0215C3F4F4F4F5F4F23
:1008E000E0E0F0E02030A0E03A07A0E04A07A0E412
:1008F0005A0710F0E1E0F0E079018A0127C0603882
:10090000710564F5FB01E158FF4FD801C7018F77EE
:100910009070A070B07080349105A105B10539F4D4
:10092000E7FE0DC080E490E0A0E0B0E004C08FE3FB
:1009300090E0A0E0B0E0E80EF91E0A1F1B1F17FFB1
:1009400005C016950795F794E794319687E01695BC
:100950000795F794E7948A95D1F705C0EE24FF2414
:100960008701EFEFF0E06E2F679566276795902F70
:100970009F77D794DD24D7948E2F8695492F462BC9
:10098000582F5D29B701CA011F910F91FF90EF9079
:10099000DF900895FC01DB01408151812281622FAB
:1009A0006F7770E0221F2227221F9381892F880FE3
:1009B000822B282F30E0991F9927991F11969C931D
:1009C000119721153105A9F54115510561057105ED
:1009D00011F482E037C082E89FEF13969C938E93C8
:1009E00012979A01AB0167E0220F331F441F551F76
:1009F0006A95D1F783E08C930DC0220F331F441FFB
:100A0000551F12968D919C911397019713969C9365
:100A10008E931297203080E0380780E0480780E40A
:100A2000580758F314962D933D934D935C93179765
:100A300008952F3F310579F4411551056105710580
:100A400019F484E08C93089564FF03C081E08C93D3
:100A500012C01C9210C02F57304013963C932E9317
:100A6000129783E08C9387E0440F551F661F771F12
:100A70008A95D1F7706414964D935D936D937C9332
:100A8000179708951F93DC01FB019C91923008F4A5
:100A900047C08081823008F443C0943051F41196ED
:100AA0001C91843099F58181682F70E0611B710978
:100AB0003FC0843021F0923031F48230B9F181812D
:100AC000882389F12DC011961C9111978230F1F085
:100AD00081811817D9F412962D913C911397828138
:100AE00093818217930794F028173907BCF0149666
:100AF0008D919D910D90BC91A02D248135814681D1
:100B00005781281739074A075B0718F4112341F06A
:100B10000AC082179307A407B50740F4112319F000
:100B200061E070E005C06FEF7FEF02C060E070E051
:100B3000CB011F910895DF93CF93CDB7DEB72997EF
:100B40000FB6F894DEBF0FBECDBF89836A834B8397
:100B50008B81282F30E039872887888599850097F1
:100B600039F0288539852130310509F476C0E4C093
:100B70008981282F30E03F832E838E819F818230B0
:100B8000910561F12E813F812330310534F48E814E
:100B90009F818130910569F0CFC02E813F81233044
:100BA000310589F18E819F818430910509F440C01F
:100BB000C3C0AAE3B0E0EAE3F0E08081482F8A8175
:100BC000282F30E081E090E0022E02C0880F991FAC
:100BD0000A94E2F7809584238C93AEC0A7E3B0E03B
:100BE000E7E3F0E08081482F8A81282F30E081E020
:100BF00090E0022E02C0880F991F0A94E2F78095B8
:100C000084238C9399C0A4E3B0E0E4E3F0E0808116
:100C1000482F8A81282F30E081E090E0022E02C028
:100C2000880F991F0A94E2F7809584238C9384C0DF
:100C3000A1E3B0E0E1E3F0E08081482F8A81282F32
:100C400030E081E090E0022E02C0880F991F0A94E4
:100C5000E2F7809584238C936FC08981282F30E040
:100C60003D832C838C819D818230910551F12C81B3
:100C70003D812330310534F48C819D818130910593
:100C800061F05AC02C813D812330310571F18C8196
:100C90009D8184309105E9F14FC0AAE3B0E0EAE319
:100CA000F0E08081482F8A81282F30E081E090E0B9
:100CB000022E02C0880F991F0A94E2F7842B8C93AE
:100CC0003BC0A7E3B0E0E7E3F0E08081482F8A81F2
:100CD000282F30E081E090E0022E02C0880F991F9B
:100CE0000A94E2F7842B8C9327C0A4E3B0E0E4E3FA
:100CF000F0E08081482F8A81282F30E081E090E069
:100D0000022E02C0880F991F0A94E2F7842B8C935D
:100D100013C0A1E3B0E0E1E3F0E08081482F8A81D5
:100D2000282F30E081E090E0022E02C0880F991F4A
:100D30000A94E2F7842B8C9329960FB6F894DEBFC1
:100D40000FBECDBFCF91DF910895DF93CF93CDB785
:100D5000DEB729970FB6F894DEBF0FBECDBF8983EB
:100D60006A834B838B81282F30E0398728878885D9
:100D70009985009739F0288539852130310509F4A6
:100D800076C0E4C08981282F30E03F832E838E8196
:100D90009F818230910561F12E813F8123303105A1
:100DA00034F48E819F818130910569F0CFC02E810E
:100DB0003F812330310589F18E819F8184309105F7
:100DC00009F440C0C3C0ABE3B0E0EBE3F0E08081E6
:100DD000482F8A81282F30E081E090E0022E02C067
:100DE000880F991F0A94E2F7809584238C93AEC0F4
:100DF000A8E3B0E0E8E3F0E08081482F8A81282F63
:100E000030E081E090E0022E02C0880F991F0A9422
:100E1000E2F7809584238C9399C0A5E3B0E0E5E3E5
:100E2000F0E08081482F8A81282F30E081E090E037
:100E3000022E02C0880F991F0A94E2F7809584233E
:100E40008C9384C0A2E3B0E0E2E3F0E08081482F1D
:100E50008A81282F30E081E090E0022E02C0880FC6
:100E6000991F0A94E2F7809584238C936FC089813F
:100E7000282F30E03D832C838C819D818230910529
:100E800051F12C813D812330310534F48C819D81D9
:100E90008130910561F05AC02C813D8123303105AC
:100EA00071F18C819D8184309105E9F14FC0ABE3F4
:100EB000B0E0EBE3F0E08081482F8A81282F30E01A
:100EC00081E090E0022E02C0880F991F0A94E2F799
:100ED000842B8C933BC0A8E3B0E0E8E3F0E0808192
:100EE000482F8A81282F30E081E090E0022E02C056
:100EF000880F991F0A94E2F7842B8C9327C0A5E3EF
:100F0000B0E0E5E3F0E08081482F8A81282F30E0CF
:100F100081E090E0022E02C0880F991F0A94E2F748
:100F2000842B8C9313C0A2E3B0E0E2E3F0E0808175
:100F3000482F8A81282F30E081E090E0022E02C005
:100F4000880F991F0A94E2F7842B8C9329960FB689
:100F5000F894DEBF0FBECDBFCF91DF910895DF9330
:100F6000CF9300D000D0CDB7DEB789836A83898163
:100F7000282F30E03C832B838B819C81823091052C
:100F800051F12B813C812330310534F48B819C81DC
:100F90008130910561F05AC02B813C8123303105AD
:100FA00071F18B819C8184309105E9F14FC0ABE3F5
:100FB000B0E0EBE3F0E08081482F8A81282F30E019
:100FC00081E090E0022E02C0880F991F0A94E2F798
:100FD00084278C933BC0A8E3B0E0E8E3F0E0808195
:100FE000482F8A81282F30E081E090E0022E02C055
:100FF000880F991F0A94E2F784278C9327C0A5E3F2
:10100000B0E0E5E3F0E08081482F8A81282F30E0CE
:1010100081E090E0022E02C0880F991F0A94E2F747
:1010200084278C9313C0A2E3B0E0E2E3F0E0808178
:10103000482F8A81282F30E081E090E0022E02C004
:10104000880F991F0A94E2F784278C930F900F90D2
:101050000F900F90CF91DF910895DF93CF9300D041
:1010600000D00F92CDB7DEB78A836B8319828A8155
:10107000282F30E03D832C834C815D814230510527
:1010800041F18C819D818330910534F42C813D8127
:101090002130310561F052C04C815D8143305105F2
:1010A00051F18C819D8184309105B9F147C0E9E30C
:1010B000F0E08081282F30E08B81882F90E0A9011B
:1010C00002C0559547958A95E2F7CA0181708983D8
:1010D00035C0E6E3F0E08081282F30E08B81882F57
:1010E00090E0A90102C0559547958A95E2F7CA019B
:1010F0008170898323C0E3E3F0E08081282F30E012
:101100008B81882F90E0A90102C0559547958A955B
:10111000E2F7CA018170898311C0E0E3F0E08081C9
:10112000282F30E08B81882F90E0A90102C05595CF
:1011300047958A95E2F7CA018170898389810F906A
:101140000F900F900F900F90CF91DF910895DF9344
:10115000CF93CDB7DEB781E060E041E00E949B0510
:1011600081E061E041E00E949B0581E062E041E0B6
:101170000E949B0581E063E041E00E949B0581E0C5
:1011800064E041E00E949B0581E065E041E00E944F
:101190009B0581E066E041E00E949B0581E067E0FD
:1011A00041E00E949B0583E066E041E00E949B05D0
:1011B00083E067E041E00E949B05CF91DF910895B5
:1011C000DF93CF93CDB7DEB7A4970FB6F894DEBF09
:1011D0000FBECDBF88A388A19AE0692F0E94CA19CB
:1011E000892F8F8F88A19AE0692F0E94CA198E8F4C
:1011F0001D8E77C48F8D282F30E03CA32BA38BA1AD
:101200009CA18430910509F4D7C02BA13CA12530C5
:101210003105ECF48BA19CA18130910509F460C0EB
:101220002BA13CA1223031052CF48BA19CA100976D
:1012300099F199C12BA13CA12230310509F474C068
:101240008BA19CA18330910509F492C08CC12BA184
:101250003CA12730310509F41BC18BA19CA188302A
:1012600091056CF42BA13CA12530310509F4C8C0CF
:101270008BA19CA18630910509F4E6C074C12BA115
:101280003CA12830310509F427C18BA19CA18930EC
:10129000910509F445C167C181E060E041E00E9429
:1012A000A50681E061E041E00E94A50681E062E0E0
:1012B00041E00E94A50681E063E041E00E94A506AE
:1012C00081E064E041E00E94A50681E065E041E044
:1012D0000E94A50681E066E040E00E94A50643C1A9
:1012E00081E060E040E00E94A50681E061E041E02D
:1012F0000E94A50681E062E041E00E94A50681E02F
:1013000063E040E00E94A50681E064E040E00E94C6
:10131000A50681E065E040E00E94A50681E066E068
:1013200040E00E94A5061FC181E060E041E00E940C
:10133000A50681E061E041E00E94A50681E062E04F
:1013400040E00E94A50681E063E041E00E94A5061E
:1013500081E064E041E00E94A50681E065E040E0B4
:101360000E94A50681E066E041E00E94A506FBC060
:1013700081E060E041E00E94A50681E061E041E09B
:101380000E94A50681E062E041E00E94A50681E09E
:1013900063E041E00E94A50681E064E040E00E9435
:1013A000A50681E065E040E00E94A50681E066E0D8
:1013B00041E00E94A506D7C081E060E040E00E94C5
:1013C000A50681E061E041E00E94A50681E062E0BF
:1013D00041E00E94A50681E063E040E00E94A5068E
:1013E00081E064E040E00E94A50681E065E041E024
:1013F0000E94A50681E066E041E00E94A506B3C018
:1014000081E060E041E00E94A50681E061E040E00B
:101410000E94A50681E062E041E00E94A50681E00D
:1014200063E041E00E94A50681E064E040E00E94A4
:10143000A50681E065E041E00E94A50681E066E046
:1014400041E00E94A5068FC081E060E041E00E947B
:10145000A50681E061E041E00E94A50681E062E02E
:1014600041E00E94A50681E063E041E00E94A506FC
:1014700081E064E041E00E94A50681E065E040E093
:101480000E94A50681E066E041E00E94A5066BC0CF
:1014900081E060E041E00E94A50681E061E041E07A
:1014A0000E94A50681E062E041E00E94A50681E07D
:1014B00063E040E00E94A50681E064E040E00E9415
:1014C000A50681E065E041E00E94A50681E066E0B6
:1014D00040E00E94A50647C081E060E041E00E9434
:1014E000A50681E061E041E00E94A50681E062E09E
:1014F00041E00E94A50681E063E041E00E94A5066C
:1015000081E064E041E00E94A50681E065E041E001
:101510000E94A50681E066E041E00E94A50623C086
:1015200081E060E041E00E94A50681E061E041E0E9
:101530000E94A50681E062E041E00E94A50681E0EC
:1015400063E041E00E94A50681E064E040E00E9483
:10155000A50681E065E041E00E94A50681E066E025
:1015600041E00E94A50683E066E040E00E94A506F7
:1015700083E067E041E00E94A50680E090E0A0E8FB
:10158000BFE3898F9A8FAB8FBC8F698D7A8D8B8DDE
:101590009C8D20E030E04AE753E40E941702DC0112
:1015A000CB018D8B9E8BAF8BB88F6D897E898F8998
:1015B000988D20E030E040E85FE30E9471038823CB
:1015C0002CF481E090E09C8B8B8B3FC06D897E89F1
:1015D0008F89988D20E03FEF4FE757E40E94110379
:1015E00018164CF5698D7A8D8B8D9C8D20E030E03E
:1015F00040E251E40E941702DC01CB01BC01CD01A5
:101600000E944100DC01CB019C8B8B8B0FC089E1D8
:1016100090E09A8B898B89899A890197F1F79A8B47
:10162000898B8B899C8901979C8B8B8B8B899C895F
:10163000009769F714C06D897E898F89988D0E9403
:101640004100DC01CB019C8B8B8B8B899C89988B17
:101650008F878F8598890197F1F7988B8F8783E023
:1016600066E041E00E94A5068E8D282F30E03AA367
:1016700029A389A19AA18430910509F4D7C029A191
:101680003AA125303105ECF489A19AA18130910568
:1016900009F460C029A13AA1223031052CF489A1B6
:1016A0009AA1009799F199C129A13AA12230310557
:1016B00009F474C089A19AA18330910509F492C0FC
:1016C0008CC129A13AA12730310509F41BC189A198
:1016D0009AA1883091056CF429A13AA125303105F1
:1016E00009F4C8C089A19AA18630910509F4E6C021
:1016F00074C129A13AA12830310509F427C189A173
:101700009AA18930910509F445C167C181E060E083
:1017100041E00E94A50681E061E041E00E94A5064B
:1017200081E062E041E00E94A50681E063E041E0E3
:101730000E94A50681E064E041E00E94A50681E0E8
:1017400065E041E00E94A50681E066E040E00E947D
:10175000A50643C181E060E040E00E94A50681E06B
:1017600061E041E00E94A50681E062E041E00E9464
:10177000A50681E063E040E00E94A50681E064E008
:1017800040E00E94A50681E065E040E00E94A506D9
:1017900081E066E040E00E94A5061FC181E060E0B4
:1017A00041E00E94A50681E061E041E00E94A506BB
:1017B00081E062E040E00E94A50681E063E041E054
:1017C0000E94A50681E064E041E00E94A50681E058
:1017D00065E040E00E94A50681E066E041E00E94ED
:1017E000A506FBC081E060E041E00E94A50681E023
:1017F00061E041E00E94A50681E062E041E00E94D4
:10180000A50681E063E041E00E94A50681E064E076
:1018100040E00E94A50681E065E040E00E94A50648
:1018200081E066E041E00E94A506D7C081E060E06B
:1018300040E00E94A50681E061E041E00E94A5062B
:1018400081E062E041E00E94A50681E063E040E0C3
:101850000E94A50681E064E040E00E94A50681E0C8
:1018600065E041E00E94A50681E066E041E00E945B
:10187000A506B3C081E060E041E00E94A50681E0DA
:1018800061E040E00E94A50681E062E041E00E9444
:10189000A50681E063E041E00E94A50681E064E0E6
:1018A00040E00E94A50681E065E041E00E94A506B7
:1018B00081E066E041E00E94A5068FC081E060E023
:1018C00041E00E94A50681E061E041E00E94A5069A
:1018D00081E062E041E00E94A50681E063E041E032
:1018E0000E94A50681E064E041E00E94A50681E037
:1018F00065E040E00E94A50681E066E041E00E94CC
:10190000A5066BC081E060E041E00E94A50681E091
:1019100061E041E00E94A50681E062E041E00E94B2
:10192000A50681E063E040E00E94A50681E064E056
:1019300040E00E94A50681E065E041E00E94A50626
:1019400081E066E040E00E94A50647C081E060E0DB
:1019500041E00E94A50681E061E041E00E94A50609
:1019600081E062E041E00E94A50681E063E041E0A1
:101970000E94A50681E064E041E00E94A50681E0A6
:1019800065E041E00E94A50681E066E041E00E943A
:10199000A50623C081E060E041E00E94A50681E049
:1019A00061E041E00E94A50681E062E041E00E9422
:1019B000A50681E063E041E00E94A50681E064E0C5
:1019C00040E00E94A50681E065E041E00E94A50696
:1019D00081E066E041E00E94A50683E066E041E028
:1019E0000E94A50683E067E040E00E94A50680E033
:1019F00090E0A0E8BFE38B879C87AD87BE876B85AF
:101A00007C858D859E8520E030E04AE753E40E9486
:101A10001702DC01CB018F839887A987BA876F8172
:101A2000788589859A8520E030E040E85FE30E9470
:101A3000710388232CF481E090E09E838D833FC066
:101A40006F81788589859A8520E03FEF4FE757E4DD
:101A50000E94110318164CF56B857C858D859E853B
:101A600020E030E040E251E40E941702DC01CB01AB
:101A7000BC01CD010E944100DC01CB019E838D831E
:101A80000FC089E190E09C838B838B819C810197BF
:101A9000F1F79C838B838D819E8101979E838D833B
:101AA0008D819E81009769F714C06F817885898543
:101AB0009A850E944100DC01CB019E838D838D813C
:101AC0009E819A83898389819A810197F1F79A830C
:101AD000898383E067E041E00E94A5068D8D8F5FDA
:101AE0008D8F8D8D883C08F485CBA4960FB6F89425
:101AF000DEBF0FBECDBFCF91DF910895DF93CF93AF
:101B000000D0CDB7DEB78A8319828A81898306C067
:101B100089810E94E0088981815089838981882395
:101B2000BCF70F900F90CF91DF910895DF93CF9383
:101B300000D00F92CDB7DEB789838981282F30E09E
:101B40003B832A838A819B8182309105E1F02A813F
:101B50003B812330310534F48A819B8181309105AA
:101B600061F022C02A813B812330310591F08A81C6
:101B70009B818430910599F017C084E062E040E0D9
:101B80000E949B0511C084E063E040E00E949B0539
:101B90000BC084E064E040E00E949B0505C084E047
:101BA00065E040E00E949B050F900F900F90CF9151
:101BB000DF910895DF93CF93CDB7DEB7EC970FB6E3
:101BC000F894DEBF0FBECDBF8AAF19AE8AAD282F05
:101BD00030E03CAF2BAF8BAD9CAD8230910509F46A
:101BE000A2C02BAD3CAD2330310534F48BAD9CADA0
:101BF0008130910571F033C22BAD3CAD23303105FE
:101C000009F41BC18BAD9CAD8430910509F49FC1D3
:101C100026C284E062E00E942D0889AF89AD882346
:101C200009F01DC280E090E0A0E7B2E48DAB9EAB6E
:101C3000AFABB8AF6DA97EA98FA998AD20E030E019
:101C40004AE753E40E941702DC01CB0189AB9AAB4F
:101C5000ABABBCAB69A97AA98BA99CA920E030E009
:101C600040E85FE30E94710388232CF481E090E058
:101C700098AB8FA73FC069A97AA98BA99CA920E03E
:101C80003FEF4FE757E40E94110318164CF56DA97A
:101C90007EA98FA998AD20E030E040E251E40E9497
:101CA0001702DC01CB01BC01CD010E944100DC0127
:101CB000CB0198AB8FA70FC089E190E09EA78DA7BD
:101CC0008DA59EA50197F1F79EA78DA78FA598A931
:101CD000019798AB8FA78FA598A9009769F714C0B3
:101CE00069A97AA98BA99CA90E944100DC01CB01BA
:101CF00098AB8FA78FA598A99CA78BA78BA59CA510
:101D00000197F1F79CA78BA784E062E00E942D0861
:101D1000882309F0A4C184E062E00E942D08882392
:101D2000D1F319AE9CC184E063E00E942D0889AF15
:101D300089AD882309F093C180E090E0A0E7B2E488
:101D40008FA398A7A9A7BAA76FA178A589A59AA5D7
:101D500020E030E04AE753E40E941702DC01CB01A7
:101D60008BA39CA3ADA3BEA36BA17CA18DA19EA1BF
:101D700020E030E040E85FE30E94710388232CF408
:101D800081E090E09AA389A33FC06BA17CA18DA1C3
:101D90009EA120E03FEF4FE757E40E941103181681
:101DA0004CF56FA178A589A59AA520E030E040E226
:101DB00051E40E941702DC01CB01BC01CD010E945D
:101DC0004100DC01CB019AA389A30FC089E190E017
:101DD00098A38F8F8F8D98A10197F1F798A38F8F7C
:101DE00089A19AA101979AA389A389A19AA1009791
:101DF00069F714C06BA17CA18DA19EA10E94410036
:101E0000DC01CB019AA389A389A19AA19E8F8D8F12
:101E10008D8D9E8D0197F1F79E8F8D8F84E063E00D
:101E20000E942D08882309F01AC184E063E00E9413
:101E30002D088823D1F319AE12C184E064E00E941A
:101E40002D0889AF89AD882309F009C180E090E0B1
:101E5000A0E7B2E4898F9A8FAB8FBC8F698D7A8DA2
:101E60008B8D9C8D20E030E04AE753E40E941702FE
:101E7000DC01CB018D8B9E8BAF8BB88F6D897E89FA
:101E80008F89988D20E030E040E85FE30E94710385
:101E900088232CF481E090E09C8B8B8B3FC06D8974
:101EA0007E898F89988D20E03FEF4FE757E40E94AD
:101EB000110318164CF5698D7A8D8B8D9C8D20E061
:101EC00030E040E251E40E941702DC01CB01BC018A
:101ED000CD010E944100DC01CB019C8B8B8B0FC09C
:101EE00089E190E09A8B898B89899A890197F1F72A
:101EF0009A8B898B8B899C8901979C8B8B8B8B8987
:101F00009C89009769F714C06D897E898F89988DA7
:101F10000E944100DC01CB019C8B8B8B8B899C89BF
:101F2000988B8F878F8598890197F1F7988B8F878A
:101F300084E064E00E942D08882309F090C084E0CA
:101F400064E00E942D088823D1F319AE88C084E094
:101F500065E00E942D0889AF89AD882309F07FC014
:101F600080E090E0A0E7B2E48B879C87AD87BE87D6
:101F70006B857C858D859E8520E030E04AE753E4C3
:101F80000E941702DC01CB018F839887A987BA874B
:101F90006F81788589859A8520E030E040E85FE3AD
:101FA0000E94710388232CF481E090E09E838D834E
:101FB0003FC06F81788589859A8520E03FEF4FE7A4
:101FC00057E40E94110318164CF56B857C858D85AE
:101FD0009E8520E030E040E251E40E941702DC01DF
:101FE000CB01BC01CD010E944100DC01CB019E83ED
:101FF0008D830FC089E190E09C838B838B819C81D2
:102000000197F1F79C838B838D819E8101979E833D
:102010008D838D819E81009769F714C06F817885CB
:1020200089859A850E944100DC01CB019E838D83C6
:102030008D819E819A83898389819A810197F1F7A5
:102040009A83898384E065E00E942D08882339F40F
:1020500084E065E00E942D088823D1F319AE89AD94
:10206000EC960FB6F894DEBF0FBECDBFCF91DF91D7
:102070000895DF93CF9300D00F92CDB7DEB7898359
:102080008981282F30E03B832A838A819B8182309B
:10209000910511F12A813B812330310534F48A8185
:1020A0009B818130910561F022C02A813B812330E0
:1020B000310561F08A819B818430910599F017C0C8
:1020C00083E060E041E00E949B0511C083E061E095
:1020D00041E00E949B050BC083E062E041E00E946A
:1020E0009B0505C083E063E041E00E949B050F90E3
:1020F0000F900F90CF91DF910895DF93CF9300D091
:102100000F92CDB7DEB789838981282F30E03B83DA
:102110002A838A819B818230910511F12A813B813A
:102120002330310534F48A819B818130910561F03F
:1021300022C02A813B812330310561F08A819B8155
:102140008430910599F017C083E060E041E00E947F
:10215000A50611C083E061E041E00E94A5060BC026
:1021600083E062E041E00E94A50605C083E063E0F1
:1021700041E00E94A5060F900F900F90CF91DF9144
:102180000895DF93CF9300D00F92CDB7DEB7898348
:102190008981282F30E03B832A838A819B8182308A
:1021A0009105B1F02A813B812330310534F48A81D5
:1021B0009B818130910591F022C02A813B8123309F
:1021C000310591F08A819B818430910599F017C087
:1021D00083E062E040E00E94A50611C083E060E079
:1021E00040E00E94A5060BC083E061E040E00E9451
:1021F000A50605C083E063E040E00E94A5060F90BD
:102200000F900F90CF91DF910895DF93CF9300D07F
:102210000F92CDB7DEB789838981282F30E03B83C9
:102220002A838A819B8182309105B1F02A813B818A
:102230002330310534F48A819B818130910589F006
:102240001EC02A813B812330310581F08A819B8128
:102250008430910581F013C083E062E00E94AF07F3
:102260000EC083E060E00E94AF0709C083E061E038
:102270000E94AF0704C083E063E00E94AF070F90A5
:102280000F900F90CF91DF910895DF93CF93CDB74B
:10229000DEB7EB970FB6F894DEBF0FBECDBF89AFA8
:1022A00089AD282F30E03BAF2AAF8AAD9BAD82309D
:1022B0009105C9F02AAD3BAD233031053CF48AAD20
:1022C0009BAD8130910509F48BC000C22AAD3BADB6
:1022D0002330310509F401C18AAD9BAD84309105ED
:1022E00009F478C1F3C183E062E041E00E94A506F1
:1022F00080E090E5A3ECB7E48DAB9EABAFABB8AF9D
:102300006DA97EA98FA998AD20E030E04AE753E49B
:102310000E941702DC01CB0189AB9AABABABBCAB23
:1023200069A97AA98BA99CA920E030E040E85FE385
:102330000E94710388232CF481E090E098AB8FA772
:102340003FC069A97AA98BA99CA920E03FEF4FE77C
:1023500057E40E94110318164CF56DA97EA98FA9A8
:1023600098AD20E030E040E251E40E941702DC0129
:10237000CB01BC01CD010E944100DC01CB0198AB37
:102380008FA70FC089E190E09EA78DA78DA59EA580
:102390000197F1F79EA78DA78FA598A9019798ABF4
:1023A0008FA78FA598A9009769F714C069A97AA982
:1023B0008BA99CA90E944100DC01CB0198AB8FA79F
:1023C0008FA598A99CA78BA78BA59CA50197F1F732
:1023D0009CA78BA783E062E040E00E94A50676C13F
:1023E00083E060E041E00E94A50680E090E5A3EC78
:1023F000B7E48FA398A7A9A7BAA76FA178A589A5C5
:102400009AA520E030E04AE753E40E941702DC017D
:10241000CB018BA39CA3ADA3BEA36BA17CA18DA17B
:102420009EA120E030E040E85FE30E947103882332
:102430002CF481E090E09AA389A33FC06BA17CA11A
:102440008DA19EA120E03FEF4FE757E40E941103CA
:1024500018164CF56FA178A589A59AA520E030E063
:1024600040E251E40E941702DC01CB01BC01CD0126
:102470000E944100DC01CB019AA389A30FC089E12E
:1024800090E098A38F8F8F8D98A10197F1F798A373
:102490008F8F89A19AA101979AA389A389A19AA153
:1024A000009769F714C06BA17CA18DA19EA10E9429
:1024B0004100DC01CB019AA389A389A19AA19E8F37
:1024C0008D8F8D8D9E8D0197F1F79E8F8D8F83E07F
:1024D00060E040E00E94A506F9C083E061E041E0D1
:1024E0000E94A50680E090E5A3ECB7E4898F9A8F5F
:1024F000AB8FBC8F698D7A8D8B8D9C8D20E030E009
:102500004AE753E40E941702DC01CB018D8B9E8BBE
:10251000AF8BB88F6D897E898F89988D20E030E0F0
:1025200040E85FE30E94710388232CF481E090E08F
:102530009C8B8B8B3FC06D897E898F89988D20E025
:102540003FEF4FE757E40E94110318164CF5698DD1
:102550007A8D8B8D9C8D20E030E040E251E40E942A
:102560001702DC01CB01BC01CD010E944100DC015E
:10257000CB019C8B8B8B0FC089E190E09A8B898B70
:1025800089899A890197F1F79A8B898B8B899C8924
:1025900001979C8B8B8B8B899C89009769F714C062
:1025A0006D897E898F89988D0E944100DC01CB0165
:1025B0009C8B8B8B8B899C89988B8F878F85988937
:1025C0000197F1F7988B8F8783E061E040E00E94EC
:1025D000A5067CC083E063E041E00E94A50680E0A0
:1025E00090E5A3ECB7E48B879C87AD87BE876B85AE
:1025F0007C858D859E8520E030E04AE753E40E948B
:102600001702DC01CB018F839887A987BA876F8176
:10261000788589859A8520E030E040E85FE30E9474
:10262000710388232CF481E090E09E838D833FC06A
:102630006F81788589859A8520E03FEF4FE757E4E1
:102640000E94110318164CF56B857C858D859E853F
:1026500020E030E040E251E40E941702DC01CB01AF
:10266000BC01CD010E944100DC01CB019E838D8322
:102670000FC089E190E09C838B838B819C810197C3
:10268000F1F79C838B838D819E8101979E838D833F
:102690008D819E81009769F714C06F817885898547
:1026A0009A850E944100DC01CB019E838D838D8140
:1026B0009E819A83898389819A810197F1F79A8310
:1026C000898383E063E040E00E94A506EB960FB6A5
:1026D000F894DEBF0FBECDBFCF91DF910895DF9399
:1026E000CF93CDB7DEB72E970FB6F894DEBF0FBEEF
:1026F000CDBF82E064E041E00E949B0582E065E09E
:1027000041E00E949B0582E066E041E00E949B055B
:1027100082E067E041E00E949B0584E067E041E0E1
:102720000E949B0584E066E041E00E949B0580E0FA
:1027300090E4ACE1B6E48B879C87AD87BE876B8560
:102740007C858D859E8520E030E04AE753E40E9439
:102750001702DC01CB018F839887A987BA876F8125
:10276000788589859A8520E030E040E85FE30E9423
:10277000710388232CF481E090E09E838D833FC019
:102780006F81788589859A8520E03FEF4FE757E490
:102790000E94110318164CF56B857C858D859E85EE
:1027A00020E030E040E251E40E941702DC01CB015E
:1027B000BC01CD010E944100DC01CB019E838D83D1
:1027C0000FC089E190E09C838B838B819C81019772
:1027D000F1F79C838B838D819E8101979E838D83EE
:1027E0008D819E81009769F714C06F8178858985F6
:1027F0009A850E944100DC01CB019E838D838D81EF
:102800009E819A83898389819A810197F1F79A83BE
:10281000898383E30E94361682E30E94361688E29B
:102820000E9436168CE00E94361682E00E94361610
:1028300081E00E9436162E960FB6F894DEBF0FBECA
:10284000CDBFCF91DF910895DF93CF93CDB7DEB7A2
:10285000E9970FB6F894DEBF0FBECDBF89AF84E015
:1028600066E041E00E94A506A8E3B0E089AD982F9C
:10287000907FE8E3F0E080818F70892B8C9384E077
:1028800067E041E00E94A50680E090E0A0E8BFE399
:102890008DAB9EABAFABB8AF6DA97EA98FA998AD3C
:1028A00020E030E04AE753E40E941702DC01CB014C
:1028B00089AB9AABABABBCAB69A97AA98BA99CA934
:1028C00020E030E040E85FE30E94710388232CF4AD
:1028D00081E090E098AB8FA73FC069A97AA98BA946
:1028E0009CA920E03FEF4FE757E40E941103181620
:1028F0004CF56DA97EA98FA998AD20E030E040E2AB
:1029000051E40E941702DC01CB01BC01CD010E9401
:102910004100DC01CB0198AB8FA70FC089E190E0AB
:102920009EA78DA78DA59EA50197F1F79EA78DA7C0
:102930008FA598A9019798AB8FA78FA598A9009705
:1029400069F714C069A97AA98BA99CA90E944100C2
:10295000DC01CB0198AB8FA78FA598A99CA78BA76B
:102960008BA59CA50197F1F79CA78BA784E067E056
:1029700040E00E94A50680E090E0A0E8BFE38FA3BE
:1029800098A7A9A7BAA76FA178A589A59AA520E0BD
:1029900030E04AE753E40E941702DC01CB018BA32D
:1029A0009CA3ADA3BEA36BA17CA18DA19EA120E0A1
:1029B00030E040E85FE30E94710388232CF481E05B
:1029C00090E09AA389A33FC06BA17CA18DA19EA199
:1029D00020E03FEF4FE757E40E94110318164CF533
:1029E0006FA178A589A59AA520E030E040E251E4E6
:1029F0000E941702DC01CB01BC01CD010E94410005
:102A0000DC01CB019AA389A30FC089E190E098A3D0
:102A10008F8F8F8D98A10197F1F798A38F8F89A140
:102A20009AA101979AA389A389A19AA1009769F70E
:102A300014C06BA17CA18DA19EA10E944100DC016C
:102A4000CB019AA389A389A19AA19E8F8D8F8D8D89
:102A50009E8D0197F1F79E8F8D8FA8E3B0E089AD31
:102A6000882F90E082959295907F9827807F982775
:102A7000982FE8E3F0E080818F70892B8C9384E0BD
:102A800067E041E00E94A50680E090E0A0E8BFE397
:102A9000898F9A8FAB8FBC8F698D7A8D8B8D9C8D32
:102AA00020E030E04AE753E40E941702DC01CB014A
:102AB0008D8B9E8BAF8BB88F6D897E898F89988D1A
:102AC00020E030E040E85FE30E94710388232CF4AB
:102AD00081E090E09C8B8B8B3FC06D897E898F89D4
:102AE000988D20E03FEF4FE757E40E94110318163E
:102AF0004CF5698D7A8D8B8D9C8D20E030E040E225
:102B000051E40E941702DC01CB01BC01CD010E94FF
:102B10004100DC01CB019C8B8B8B0FC089E190E0E5
:102B20009A8B898B89899A890197F1F79A8B898B7E
:102B30008B899C8901979C8B8B8B8B899C890097B7
:102B400069F714C06D897E898F89988D0E94410034
:102B5000DC01CB019C8B8B8B8B899C89988B8F871D
:102B60008F8598890197F1F7988B8F8784E067E0CC
:102B700040E00E94A50680E090E0A0EAB0E48B87E8
:102B80009C87AD87BE876B857C858D859E8520E083
:102B900030E04AE753E40E941702DC01CB018F8347
:102BA0009887A987BA876F81788589859A8520E07B
:102BB00030E040E85FE30E94710388232CF481E059
:102BC00090E09E838D833FC06F81788589859A854B
:102BD00020E03FEF4FE757E40E94110318164CF531
:102BE0006B857C858D859E8520E030E040E251E458
:102BF0000E941702DC01CB01BC01CD010E94410003
:102C0000DC01CB019E838D830FC089E190E09C8322
:102C10008B838B819C810197F1F79C838B838D81C2
:102C20009E8101979E838D838D819E81009769F798
:102C300014C06F81788589859A850E944100DC01E6
:102C4000CB019E838D838D819E819A838983898127
:102C50009A810197F1F79A838983E9960FB6F894E0
:102C6000DEBF0FBECDBFCF91DF910895DF93CF932D
:102C7000CDB7DEB7E9970FB6F894DEBF0FBECDBF74
:102C800089AF84E066E040E00E94A506A8E3B0E0DA
:102C900089AD982F907FE8E3F0E080818F70892BD9
:102CA0008C9384E067E041E00E94A50680E090E01C
:102CB000A0E8BFE38DAB9EABAFABB8AF6DA97EA96B
:102CC0008FA998AD20E030E04AE753E40E94170254
:102CD000DC01CB0189AB9AABABABBCAB69A97AA9E0
:102CE0008BA99CA920E030E040E85FE30E947103DB
:102CF00088232CF481E090E098AB8FA73FC069A9AE
:102D00007AA98BA99CA920E03FEF4FE757E40E94E6
:102D1000110318164CF56DA97EA98FA998AD20E076
:102D200030E040E251E40E941702DC01CB01BC011B
:102D3000CD010E944100DC01CB0198AB8FA70FC0F1
:102D400089E190E09EA78DA78DA59EA50197F1F73B
:102D50009EA78DA78FA598A9019798AB8FA78FA540
:102D600098A9009769F714C069A97AA98BA99CA9A9
:102D70000E944100DC01CB0198AB8FA78FA598A9D9
:102D80009CA78BA78BA59CA50197F1F79CA78BA768
:102D900084E067E040E00E94A50680E090E0A0E8C3
:102DA000BFE38FA398A7A9A7BAA76FA178A589A504
:102DB0009AA520E030E04AE753E40E941702DC01C4
:102DC000CB018BA39CA3ADA3BEA36BA17CA18DA1C2
:102DD0009EA120E030E040E85FE30E947103882379
:102DE0002CF481E090E09AA389A33FC06BA17CA161
:102DF0008DA19EA120E03FEF4FE757E40E94110311
:102E000018164CF56FA178A589A59AA520E030E0A9
:102E100040E251E40E941702DC01CB01BC01CD016C
:102E20000E944100DC01CB019AA389A30FC089E174
:102E300090E098A38F8F8F8D98A10197F1F798A3B9
:102E40008F8F89A19AA101979AA389A389A19AA199
:102E5000009769F714C06BA17CA18DA19EA10E946F
:102E60004100DC01CB019AA389A389A19AA19E8F7D
:102E70008D8F8D8D9E8D0197F1F79E8F8D8FA8E39D
:102E8000B0E089AD882F90E082959295907F982749
:102E9000807F9827982FE8E3F0E080818F70892B5E
:102EA0008C9384E067E041E00E94A50680E090E01A
:102EB000A0E8BFE3898F9A8FAB8FBC8F698D7A8D25
:102EC0008B8D9C8D20E030E04AE753E40E9417028E
:102ED000DC01CB018D8B9E8BAF8BB88F6D897E898A
:102EE0008F89988D20E030E040E85FE30E94710315
:102EF00088232CF481E090E09C8B8B8B3FC06D8904
:102F00007E898F89988D20E03FEF4FE757E40E943C
:102F1000110318164CF5698D7A8D8B8D9C8D20E0F0
:102F200030E040E251E40E941702DC01CB01BC0119
:102F3000CD010E944100DC01CB019C8B8B8B0FC02B
:102F400089E190E09A8B898B89899A890197F1F7B9
:102F50009A8B898B8B899C8901979C8B8B8B8B8916
:102F60009C89009769F714C06D897E898F89988D37
:102F70000E944100DC01CB019C8B8B8B8B899C894F
:102F8000988B8F878F8598890197F1F7988B8F871A
:102F900084E067E040E00E94A50680E090E0A0EABF
:102FA000B0E48B879C87AD87BE876B857C858D85DC
:102FB0009E8520E030E04AE753E40E941702DC01DE
:102FC000CB018F839887A987BA876F817885898598
:102FD0009A8520E030E040E85FE30E947103882397
:102FE0002CF481E090E09E838D833FC06F817885D3
:102FF00089859A8520E03FEF4FE757E40E9411034F
:1030000018164CF56B857C858D859E8520E030E01B
:1030100040E251E40E941702DC01CB01BC01CD016A
:103020000E944100DC01CB019E838D830FC089E1AA
:1030300090E09C838B838B819C810197F1F79C832B
:103040008B838D819E8101979E838D838D819E814F
:10305000009769F714C06F81788589859A850E94E9
:103060004100DC01CB019E838D838D819E819A83FB
:10307000898389819A810197F1F79A838983E996F7
:103080000FB6F894DEBF0FBECDBFCF91DF9108958C
:10309000DF93CF9300D00F92CDB7DEB79B838A83A7
:1030A00019820EC08981282F30E08A819B81FC0122
:1030B000E20FF31F80810E94241489818F5F89832E
:1030C0008981282F30E08A819B81FC01E20FF31F68
:1030D0008081882339F70F900F900F90CF91DF9167
:1030E00008950F931F93DF93CF93CDB7DEB7659706
:1030F0000FB6F894DEBF0FBECDBF6A8B7B8B8C8B77
:103100009D8B80E1FE013296DF01982F1D929A95EA
:10311000E9F719822FC08981082F112707FD109523
:103120008A899B89AC89BD892AE030E040E050E083
:10313000BC01CD010E94D619DC01CB01282FCE01A4
:103140000296FC01E00FF11F20838A899B89AC89DC
:10315000BD892AE030E040E050E0BC01CD010E9492
:10316000D619DA01C9018A8B9B8BAC8BBD8B898107
:103170008F5F89838A899B89AC89BD890097A10566
:10318000B10549F689818150898311C08981282F31
:10319000332727FD3095CE010296FC01E20FF31F85
:1031A0008081805D0E942414898181508983898176
:1031B000882364F765960FB6F894DEBF0FBECDBFC7
:1031C000CF91DF911F910F910895DF93CF9300D09E
:1031D00000D0CDB7DEB78B836C838B818230A0F4B7
:1031E0008C81803188F480E8898380EC8A838B81AC
:1031F000282F30E0CE010196FC01E20FF31F9081F1
:103200008C81890F0E9436160F900F900F900F90AF
:10321000CF91DF910895DF93CF93CDB7DEB7299794
:103220000FB6F894DEBF0FBECDBF89836A834B8390
:1032300080E690E00E944818198689818A3010F053
:1032400021E0298718868A818A3010F031E038879A
:1032500089859885892B282F30E03F832E831D8216
:103260001C828B818A3020F081E090E09D838C83EA
:103270008E819F812C813D81822B932B0097D1F1F0
:1032800080E067E00E94E51886E690E00E9448181A
:1032900081E067E00E94E5188981882F90E0A0E036
:1032A000B0E0BC01CD010E94711889818A3018F408
:1032B00080E20E9424148AE30E9424148A81882FC9
:1032C00090E0A0E0B0E0BC01CD010E9471188A81BD
:1032D0008A3018F480E20E9424148AE30E942414A5
:1032E0008B81882F90E0A0E0B0E0BC01CD010E946E
:1032F00071182DC080E067E00E94E5188EE690E02E
:103300000E94481881E067E00E94E5188981882FB3
:1033100090E0A0E0B0E0BC01CD010E9471188AE30A
:103320000E9424148A81882F90E0A0E0B0E0BC01C4
:10333000CD010E9471188AE30E9424148B81882F8A
:1033400090E0A0E0B0E0BC01CD010E947118299688
:103350000FB6F894DEBF0FBECDBFCF91DF910895B9
:10336000DF93CF93CDB7DEB781E00E943616CF91C1
:10337000DF910895DF93CF93CDB7DEB70E946F132F
:1033800083E06EE04AE00E940B1980E090E0CF916C
:10339000DF910895991B79E004C0991F961708F0F2
:1033A000961B881F7A95C9F780950895A1E21A2E79
:1033B000AA1BBB1BFD010DC0AA1FBB1FEE1FFF1FD9
:1033C000A217B307E407F50720F0A21BB30BE40B29
:1033D000F50B661F771F881F991F1A9469F7609570
:1033E0007095809590959B01AC01BD01CF0108952A
:1033F0002F923F924F925F926F927F928F929F9205
:10340000AF92BF92CF92DF92EF92FF920F931F93F2
:10341000CF93DF93CDB7DEB7CA1BDB0B0FB6F894A3
:10342000DEBF0FBECDBF09942A88398848885F84E3
:103430006E847D848C849B84AA84B984C884DF8054
:10344000EE80FD800C811B81AA81B981CE0FD11D38
:103450000FB6F894DEBF0FBECDBFED010895F8940E
:02346000FFCF9C
:10346200436C6F636B0048203A4D203A5300483A50
:0C3472004D3A5300000000000000000074
:00000001FF
